:100000000C9434000C9451000C9451000C94510049
:100010000C9451000C9451000C9451000C9451001C
:100020000C9451000C9451000C9451000C9451000C
:100030000C9451000C9451000C9451000C945100FC
:100040000C94BD000C9451000C9451000C94510080
:100050000C9451000C9451000C9451000C945100DC
:100060000C9451000C94510011241FBECFEFD8E026
:10007000DEBFCDBF11E0A0E0B1E0EAEEF2E002C0E9
:1000800005900D92AA30B107D9F721E0AAE0B1E0BE
:1000900001C01D92A331B207E1F70E9407010C9441
:1000A00073010C9400003FB7F89480910F01909178
:1000B0001001A0911101B091120126B5A89B05C0B5
:1000C0002F3F19F00196A11DB11D3FBFBA2FA92FD7
:1000D000982F8827BC01CD01620F711D811D911DD4
:1000E00042E0660F771F881F991F4A95D1F7089540
:1000F0008F929F92AF92BF92CF92DF92EF92FF9238
:100100000E9453004B015C0188EEC82E83E0D82E7C
:10011000E12CF12C0E945300681979098A099B0986
:10012000683E734081059105A8F321E0C21AD10809
:10013000E108F10888EE880E83E0981EA11CB11C2E
:10014000C114D104E104F10429F7FF90EF90DF908E
:10015000CF90BF90AF909F908F900895CF93DF93F3
:10016000C0E0D1E089918BB90E94780081E0CA306B
:10017000D807C1F7DF91CF9108951F920F920FB664
:100180000F9211242F933F938F939F93AF93BF931D
:1001900080910B0190910C01A0910D01B0910E0185
:1001A00030910A0123E0230F2D3758F50196A11D48
:1001B000B11D20930A0180930B0190930C01A09331
:1001C0000D01B0930E0180910F0190911001A0914B
:1001D0001101B09112010196A11DB11D80930F0173
:1001E00090931001A0931101B0931201BF91AF91B0
:1001F0009F918F913F912F910F900FBE0F901F9065
:10020000189526E8230F0296A11DB11DD2CF789430
:1002100084B5826084BD84B5816084BD85B582600B
:1002200085BD85B5816085BD80916E0081608093BC
:100230006E00109281008091810082608093810025
:100240008091810081608093810080918000816035
:10025000809380008091B10084608093B100809190
:10026000B00081608093B00080917A0084608093B8
:100270007A0080917A00826080937A0080917A007F
:10028000816080937A0080917A00806880937A0000
:100290001092C1008FEF8AB9219A229A239ACFE453
:1002A000DBE516E00FE380E0E82E80E0F82E299AE7
:1002B0000E94AE0029982A9ACBB90E947800DBB937
:1002C0000E9478001BB90E9478000BB90E94780048
:1002D0002A982B9A0E94AE002B98E114F10439F36E
:0A02E0000E940000E4CFF894FFCF65
:0A02EA003F065B4F666D7D077F6FD6
:00000001FF
